S01900004B6162656C7465737465723230303731362E7372656365
S11300000C942A000C9447000C9447000C9447006D
S11300100C9447000C9447000C9447000C94470040
S11300200C9447000C9447000C9447000C94470030
S11300300C9447000C9447000C9447000C94470020
S11300400C9447000C9447000C9447000C94470010
S11300500C94470011241FBECFE5D4E0DEBFCDBF12
S113006012E0A0E6B0E0E0E6F9E002C005900D92EF
S1130070A83FB107D9F723E0A8EFB2E001C01D9271
S1130080AC36B207E1F70E94C7030C94AE040C949B
S1130090000010BC83E389B982E08BB988E08AB997
S11300A086E880BD08955D9BFECF8CB90895CF93FB
S11300B0DF93EC018991882319F00E945300FACF51
S11300C0DF91CF9108958F929F92AF92BF92CF927A
S11300D0DF92EF92FF92CF93DF934C01A12CB12CCE
S11300E075016401D0E2C4E0C15008F445C00C2E8F
S11300F004C0F694E794D794C7940A94D2F7EC2FEB
S1130100E150A0F0A70196012F5F3F4F4F4F5F4F83
S1130110A3E3B3E00E9494046B017C018CE0F694A9
S1130120E794D794C7948A95D1F7EACFC114D10440
S1130130E104F10439F4CC2329F08D2F0E945300FB
S1130140EC2F06C080E38C0D0E945300D0E3F8CF5F
S1130150E15048F0AAE0B0E0A70196010E9494049F
S11301606B017C01F5CFD501C4018C199D09AE0941
S1130170BF096C017D01B8CFDF91CF91FF90EF9063
S1130180DF90CF90BF90AF909F908F900895AF92E3
S1130190BF92CF92DF92EF92FF920F931F93CF9370
S11301A0DF93D82FC92F80E691E00E94570080ED9D
S11301B090E00E94570081EF90E00E94570083E195
S11301C091E00E94570020E6A22E20E0B22E0D2FCF
S11301D01C2FC0E080E20E945300CA302CF480E25D
S11301E00E9453008C2F0CC0C4312CF481E30E9474
S11301F0530086EF04C082E30E9453008CEE8C0F00
S1130200805D0E94530080E20E945300D0E0C12C24
S1130210D12C7601C394F80180819181A281B381AC
S11302208C219D21AE21BF21F501892B8A2B8B2B9B
S1130230A1F080819181A281B3818C219D21AE2185
S1130240BF21892B8A2B8B2B31F0DC1302C08FE664
S113025013C088E511C087E40FC080819181A28119
S1130260B3818C219D21AE21BF21892B8A2B8B2B1D
S113027011F085E401C08EE20E945300CC0CDD1C19
S1130280EE1CFF1CDF5FDC3131F680E691E00E945A
S11302905700CF5FF4E0AF0EB11C0C5F1F4FCC31A1
S11302A009F098CF85E391E0DF91CF911F910F91F1
S11302B0FF90EF90DF90CF90BF90AF900C945700D9
S11302C081B3837F81BB82B38C6082BB889A08959B
S11302D081E491E00E94570081B38C6081BB929AC3
S11302E0939880EA9FE03CE022B3232722BBEFE807
S11302F0F1E03197F1F700C000000197A9F788EC0D
S11303002CE092B3922792BBE7E0F1E03197F1F74A
S113031000C000008150A9F781B3837F81BB82B301
S11303208C6082BB089588E491E00E94570081B3F9
S11303308C6081BB929A939888EE93E03CE022B360
S1130340232722BBEFE8F1E03197F1F700C000006A
S11303500197A9F788EC2CE092B3922792BBE7E0CF
S1130360F1E03197F1F700C000008150A9F781B3A3
S1130370837F81BB82B38C6082BB08958FE491E05C
S11303800E94570081B38C6081BB929A939890E14C
S11303903CE084E622B3232722BBE7E0F1E0319777
S11303A0F1F700C000008150A9F7FFEF23EF41E00F
S11303B0F15020404040E1F700C00000915049F75F
S11303C081B3837F81BB82B38C6082BB089586E551
S11303D091E00E94570081B38C6081BB929A9398FC
S11303E088EE93E03CE022B3232722BBEFE8F1E060
S11303F03197F1F700C000000197A9F781B3837F1B
S113040081BB82B38C6082BB0895E199FECF9FBB10
S11304108EBB6DBBE29AE19A0895E199FECF9FBB32
S11304208EBBE09A8DB30895CF92DF92EF92FF9244
S11304300F931F93CF93DF9390E6C92E90E0D92EAC
S113044000E010E07801C3E0D0E09E0183E0220FD9
S1130450331F8A95E1F7F60180819181A281B381EE
S1130460BC01CD0104C096958795779567952A952B
S1130470D2F7C7010E940502FFEFEF1AFF0A219786
S113048020F70C5F1F4FE4E0CE0ED11C003711059E
S1130490C9F6DF91CF911F910F91FF90EF90DF90FC
S11304A0CF9008958F929F92AF92BF92CF92DF9296
S11304B0EF92FF920F931F93CF93DF9350E6C52ED5
S11304C050E0D52E00E010E07801C3E0D0E0812CAC
S11304D0912C5401C7010E940D0290E0A0E0B0E00D
S11304E09E0143E0220F331F4A95E1F704C0880FB1
S11304F0991FAA1FBB1F2A95D2F7880E991EAA1E00
S1130500BB1E8FEFE81AF80A219720F70C5F1F4FE4
S1130510F60181929192A192B1926F010037110577
S113052099F6DF91CF911F910F91FF90EF90DF909B
S1130530CF90BF90AF909F908F9008951ABA8FEF8D
S11305408BBB17BA88BB14BA85BB81B38F7081BBD0
S113055082B3806F82BB0895883090F44AB321E05F
S113056030E0B90102C0660F771F8A95E2F7CB012C
S1130570942F982B9ABB9BB3809589238BBB0895AA
S1130580803198F447B3885021E030E0B90102C0CB
S1130590660F771F8A95E2F7CB01942F982B97BBB0
S11305A098B38095892388BB0895883198F444B31F
S11305B0805120E830E0B90102C0759567958A95AD
S11305C0E2F7CB01942F982B94BB95B380958923A4
S11305D085BB08958C3198F441B3845121E030E017
S11305E0B90102C0660F771F8A95E2F7CB01942FF9
S11305F0982B91BB92B38095892382BB08950C9468
S1130600E7010F931F9329B3E6B393B390959295A3
S1130610892F8C7C382F36953695937304E0909F00
S1130620C0011124832B682F6A7A66958575880F1B
S1130630862B40B350E040955095407F5527052EBA
S1130640000C660B770B94E1440F551F661F771F50
S11306509A95D1F7F0E0E095F095FE2FEE274E0F36
S11306605F1F611D711D2095420F511D611D711D7C
S113067090E0A0E0B0E0DC01992788278A019B0183
S1130680080F191F2A1F3B1FC901B8011F910F91A1
S113069008950F931F93ECEFF2E0A0E6B0E080E042
S11306A001911191219131914D915D916D917D91C6
S11306B091E0041715072607370709F490E0890F1E
S11306C093E0EC36F90761F71F910F910895DF92DB
S11306D0EF92FF920F931F93CF93DF93D82E8EE563
S11306E091E00E945700DD2019F082E691E002C0FB
S11306F08EE691E00E9457003CEFE32E32E0F32EA9
S113070000E610E0D0E0C0E00E949E028D2F0E941F
S1130710AC022FEF83EF91E0215080409040E1F74D
S113072000C000000E940103DD2029F0F80160836D
S1130730718382839383F70161937193819391937E
S11307407F01611571058105910519F40E94E70186
S11307500DC0262F2170C20F9695879577956795C2
S11307606115710581059105A1F7C150DF5F0C5F2B
S11307701F4FDC3149F6D1100E9414028C2FDF91F7
S1130780CF911F910F91FF90EF90DF9008950E94F9
S113079060010E94490080E691E00E94570088E7CA
S11307A091E00E9457008EE991E00E94570084EC8A
S11307B091E00E9457008AEE91E00E94570080E188
S11307C092E00E94570087E392E00E9457008AE576
S11307D092E00E945700829B05C00E94520283E768
S11307E092E002C08AE992E00E94570080E690E01D
S11307F00E94C7000E946801829B0FC0839B02C0B5
S1130800909A01C090982FEF83EF91E0215080409F
S11308109040E1F700C00000EFCF839B1FC081E050
S11308200E94670390E00E94630085EC92E00E94BE
S113083057008CEF92E00E94C7001092FB021092C6
S1130840FA021092F9021092F80283E692E00E94F2
S113085057000E9468018EE591E063C080E00E9429
S1130860670390E00E94630085EC92E00E945700C9
S11308700E944903C82F90E00E9463008DEC92E02F
S11308800E945700CC2361F00E94BE018091F802BF
S11308909091F90201969093F9028093F8020BC0AB
S11308A00E9493018091FA029091FB020196909329
S11308B0FB028093FA028CEF92E00E94C70080E66C
S11308C091E00E94570086ED92E00E9457008091CB
S11308D0FA029091FB020E94630080E691E00E947C
S11308E0570083EE92E00E9457008091F8029091A5
S11308F0F9020E94630080E691E00E94570080EFB5
S113090092E00E9457002091FA023091FB028091FC
S1130910F8029091F902820F931F0E94630080E60F
S113092091E00E94570068CF0E949F04A59F900DFC
S1130930B49F900DA49F800D911D11240895A29F32
S1130940B001B39FC001A39F700D811D1124911D9F
S1130950B29F700D811D1124911D0895F894FFCF4D
S113096003000000030000000C0000000C00000065
S11309703000000030000000C0000000C000000093
S11309800003000000030000000C0000000C000045
S1130990003000000030000000C0000000C0000073
S11309A0000003000000030000000C0000000C0025
S11309B000003000000030000000C0000000C00053
S11309C000000003000000030000000C0000000C05
S11309D06F3A647269766520473A676F7420453AC6
S11309E06578706563747320583A6D617463680A3E
S11309F00050696E20302E2E2E2E2E2E2E2E2E2EB0
S1130A002E2E2E2E2E2E2E2E2E2E2E2E2E2E2E32FE
S1130A10370A0050696E2030202020203520202005
S1130A20203020202020352020202030202020208D
S1130A303520370A00454E44204F46204E45540A7F
S1130A4000444F4E45200A0050415353200A0046AB
S1130A5041494C200A004552524F52200A000A0ACA
S1130A600A005245434F52444D4F44450A005445F1
S1130A7053544D4F44450A002A2A2A2A2A2A2A2A4C
S1130A802A2A2A2A2A2A2A2A2A2A2A2A2A2A2A2AC2
S1130A902A2A2A2A2A2A2A2A2A2A2A2A0A002A2AFC
S1130AA02A574952494E472A434F4D5041524154C7
S1130AB04F522A464F522A32382A4E4F4445532A1F
S1130AC02A2A0A002A2A2A2A2A2A2A2A2A5645525D
S1130AD053494F4E2A323032302F30372F31372A94
S1130AE02A2A2A2A2A2A2A2A0A002A2A2AA94542FA
S1130AF0442D50572D454D2A323032302A28535434
S1130B004C45552C32356D6D4867292A2A2A0A002E
S1130B102A2A2A2A2A2A2A2A2A2A2A2A2A2A2A2A31
S1130B202A2A2A2A2A2A2A2A2A2A2A2A2A2A2A2A21
S1130B302A2A2A2A0A0A00535441525455503A2068
S1130B4053455249414C204F55542033382C346B73
S1130B504261756420384E310A0053544152545551
S1130B60503A20524553455420434F554E54455214
S1130B70530A00535441525455503A20524541446B
S1130B80204C415354205245434F52442046524F27
S1130B904D20454550524F4D0A005354415254552F
S1130BA0503A204C4F4144205245464552454E430D
S1130BB045204E4554202831322C33342C35362EE2
S1130BC02E2E290A002077697265730A0020657247
S1130BD0726F72732000544F54414C205041535350
S1130BE03A2000544F54414C204641494C3A20008D
S10B0BF0544F54414C3A20001B
S9030000FC
